:020000040800F2
:1000000000500020250C00084D0900085309000885
:10001000590900085F090008650900080000000090
:100020000000000000000000000000006B09000854
:100030007709000800000000830900088F09000804
:100040006D0C00086D0C00086D0C00086D0C0008AC
:100050006D0C00086D0C00086D0C00086D0C00089C
:100060006D0C00086D0C00086D0C00086D0C00088C
:100070006D0C00086D0C00086D0C00086D0C00087C
:100080006D0C00086D0C00086D0C00086D0C00086C
:100090006D0C00086D0C00086D0C00086D0C00085C
:1000A0006D0C00086D0C00086D0C00086D0C00084C
:1000B0006D0C00086D0C00086D0C00086D0C00083C
:1000C0006D0C00086D0C00086D0C00086D0C00082C
:1000D0006D0C00086D0C00086D0C00086D0C00081C
:1000E0006D0C00086D0C00086D0C0008000000008D
:1000F0000000000000000000000000000000000000
:0C01000000000000000000005FF808F1A3
:10010C0010B5054C237833B9044B13B10448AFF345
:10011C0000800123237010BD10000020000000009F
:10012C00CC23000808B5034B1BB103490348AFF3BC
:10013C00008008BD0000000014000020CC23000843
:10014C0080B586B000AF7860164BFB600023FB8255
:10015C0000233B617B681B789BB20133FB82FB8ADB
:10016C00043B7A6813441B683B61FB8A043B3A6985
:10017C001946786800F03EFA0346012B0BD1042097
:10018C0000F00CFA07F10C014FF0FF330422064883
:10019C0001F0D8FE01E000F01BFA00BF1837BD4695
:1001AC0080BD00BF64010100FC00002080B586B05A
:1001BC0000AF7860194A07F1080392E80300186051
:1001CC00043319800023FB8200233B617B681B787E
:1001DC009BB20133FB82FB8A043B7A6813441B6895
:1001EC003B61FB8A043B3A691946786800F002FAD5
:1001FC000346012B0BD1062000F0D0F907F10801C2
:10020C004FF0FF330622064801F09CFE01E000F09F
:10021C00DFF900BF1837BD4680BD00BFE4230008DE
:10022C00FC00002080B586B000AF78600023FB8115
:10023C000023FB8200233B617B681B789BB201335C
:10024C00FB82FB8A043B7A6813441B683B61FB8A84
:10025C00043B3A691946786800F0CCF90346012B47
:10026C0012D10C4B1B689BB2C3F30B039BB2FB81EB
:10027C00022000F093F907F10E014FF0FF33022238
:10028C00054801F05FFE01E000F0A2F900BF18374D
:10029C00BD4680BD002004E0FC00002080B586B087
:1002AC0000AF78600223FB730023FB8200233B61C9
:1002BC007B681B789BB20133FB82FB8A043B7A6818
:1002CC0013441B683B61FB8A043B3A691946786806
:1002DC0000F090F90346012B17D17B6802331A68A2
:1002EC007B6806331B781946104600F0BFF90346AD
:1002FC00FB73012000F052F907F10F014FF0FF33AF
:10030C000122054801F01EFE01E000F061F900BF7A
:10031C001837BD4680BD00BFFC00002080B586B0FC
:10032C0000AF78600023FB7200237B610023FB7419
:10033C000023BB7200233B820023FB607B681B788D
:10034C009BB201333B823B8A043B7A6813441B68A3
:10035C00FB603B8A043BFA681946786800F04AF95E
:10036C000346012B2CD1012000F018F97B68D3F83F
:10037C0002307B617B689B79FB74786900F028F80C
:10038C000346FB72FB7A012B11D17B680733FA7C95
:10039C007969184600F0BAF90346BB7207F10A01F5
:1003AC004FF0FF330122094801F0CCFD0AE007F1C0
:1003BC000B014FF0FF330122044801F0C3FD01E0B3
:1003CC0000F006F900BF1837BD4680BDFC000020C8
:1003DC0080B485B000AF78600023FB737B68B3F109
:1003EC00006F06D37B680C4A934202D80123FB733F
:1003FC000CE07B68B3F1005F06D37B68074A93423D
:10040C0002D80123FB7301E00123FB73FB7B18462D
:10041C001437BD4680BC7047000001080050002016
:10042C0080B58AB000AF78607B681B789BB20133D3
:10043C00FB8400233B62FB8C043B1D4A13441B686A
:10044C003B62FB8C043B3A6A1946194800F0D2F81F
:10045C000346012B25D1012000F0A0F84FF0FF330B
:10046C0004221449144801F06DFD0123FB60FB6864
:10047C0083F3108800BF72B600BF104B0D4A9A6010
:10048C000C4B1B68FB61FB693B613B6983F3088880
:10049C0000BF0B4B1B68BB61BB697B617B699847D9
:1004AC0001E000F095F800BF2837BD4680BD00BFC5
:1004BC002C00002000800008FC00002000ED00E073
:1004CC000480000880B582B000AF0023BB7101230B
:1004DC00FB7101237B71C82200212D4801F044FFE0
:1004EC004FF0FF3301222A492A4801F0AEFD0346A2
:1004FC007B717B79002B02D00023FB7142E0244BF3
:10050C001B78BB71BB799AB24FF0FF33224921485B
:10051C0001F09BFD03467B717B79002B02D00023FD
:10052C00FB712FE01A4B5B78103B062B28D801A2ED
:10053C0052F823F05D050008650500086D050008FC
:10054C008D050008750500087D0500088505000867
:10055C000F48FFF7F5FD15E00D48FFF727FE11E0FA
:10056C000B48FFF75FFE0DE00948FFF759FF09E064
:10057C000748FFF793FE05E00548FFF7CFFE01E0C3
:10058C000023FB71FB7918460837BD4680BD00BFC0
:10059C002C000020FC0000202D00002080B584B031
:1005AC0000AF0346FB710023BB81CD233B73FB796A
:1005BC007B7307F10C014FF0FF330222034801F06B
:1005CC00C1FC00BF1037BD4680BD00BFFC00002041
:1005DC0080B582B000AFAB23FB71F91D4FF0FF3338
:1005EC000122034801F0AEFC00BF0837BD4680BDB8
:1005FC00FC00002080B588B000AFF860B9607A606C
:10060C000023FB770023BB6100233B610023FB75B8
:10061C000FE0FB7DFA6813441B783B6107F1100374
:10062C0001221946104800F07EFCB861FB7D0133B5
:10063C00FB75FB7DBA689A42EBD80B4B1B689A682A
:10064C00094B1B6842F001029A607A68BB699A42B6
:10065C0002D10123FB7701E00023FB77FB7F1846D7
:10066C002037BD4680BD00BFF400002080B588B0A7
:10067C0000AF78600B46FB700123BB770023BB6097
:10068C000023FB77FB78102B02D90023FB7735E096
:10069C000123FB77FB780F2B02D97B68FF2B2BD127
:1006AC007B68FF2B08D10023FB6001233B61164BB9
:1006BC007B610C23BB6107E00023FB6001233B61E2
:1006CC007B687B61FB78BB6100F0C8FC07F108021A
:1006DC0007F10C031146184600F0A8FD0346BB7742
:1006EC0000F0E2FCBB68B3F1FF3F02D10323FB77C0
:1006FC0004E00223FB7701E00023FB77FB7F184625
:10070C002037BD4680BD00BF00800008B0B588B062
:10071C0000AFF860B9601346FB7101233B770023EF
:10072C00BB610023FB750023FB7700F097FC0023D3
:10073C00BB7700237B7722E07B7FBA681344BB61D5
:10074C00BB7F5B00FA6813441B889BB200221C46DB
:10075C00154622462B46B969012000F00FFC0346D2
:10076C003B773B7F002B02D00023FB7701E001237A
:10077C00FB77BB7F0133BB777B7F02337B77FB79C6
:10078C005B08DBB2BA7F9A42D6D3FB7F1846203780
:10079C00BD46B0BD80B500AF064B074A1A60054890
:1007AC0000F0A5FB0346002B01D000F0A1F800BF20
:1007BC0080BD00BFF40000200030024080B485B042
:1007CC0000AF78607B681B68094A93420BD1094BD8
:1007DC005B69084A43F040035361064B5B6903F0C5
:1007EC004003FB60FB6800BF1437BD4680BC7047FC
:1007FC00003002400010024080B485B000AF144BB2
:10080C009B69134A43F020039361114B9B6903F0DE
:10081C002003FB60FB680E4B9B690D4A43F00403FD
:10082C0093610B4B9B6903F00403BB60BB68084BE3
:10083C009B69074A43F008039361054B9B6903F0DE
:10084C0008037B607B6800BF1437BD4680BC7047D3
:10085C000010024080B500AF00F004FA00F00DF873
:10086C00FFF7CAFFFFF796FF00F0C2F800F0EAF8B6
:10087C0000F094F8FFF726FEFCE780B590B000AFCF
:10088C0007F1180328220021184601F06DFD3B1DCD
:10089C0000221A605A609A60DA601A610223BB6106
:1008AC000123BB621023FB6200237B6307F1180357
:1008BC00184600F0E7FE0346002B01D000F018F8B4
:1008CC000F237B600023BB600023FB6000233B6194
:1008DC0000237B613B1D0021184601F055F90346AE
:1008EC00002B01D000F004F800BF4037BD4680BD9E
:1008FC0080B400AF72B600BFFEE7000080B483B0D6
:10090C0000AF0E4B9B690D4A43F0010393610B4BF7
:10091C009B6903F001037B607B68084BDB69074A2A
:10092C0043F08053D361054BDB6903F080533B608C
:10093C003B6800BF0C37BD4680BC704700100240BE
:10094C0080B400AFFEE780B400AFFEE780B400AF28
:10095C00FEE780B400AFFEE780B400AFFEE780B4E2
:10096C0000AF00BFBD4680BC704780B400AF00BF75
:10097C00BD4680BC704780B400AF00BFBD4680BC94
:10098C00704780B500AF00F0B3F900BF80BD80B4F4
:10099C0000AF00BFBD4680BC7047000080B500AF03
:1009AC00114B124A1A60104B4FF4E1325A600E4B45
:1009BC0000229A600C4B0022DA600B4B00221A6169
:1009CC00094B0C225A61084B00229A61064B0022FB
:1009DC00DA61054801F066FA0346002B01D0FFF7F7
:1009EC0087FF00BF80BD00BFFC0000200038014025
:1009FC0080B500AF114B124A1A60104B4FF4E13224
:100A0C005A600E4B00229A600C4B0022DA600B4BA2
:100A1C0000221A61094B0C225A61084B00229A6180
:100A2C00064B0022DA61054801F03CFA0346002B24
:100A3C0001D0FFF75DFF00BF80BD00BF4401002067
:100A4C000044004080B500AF114B124A1A60104BA5
:100A5C004FF4E1325A600E4B00229A600C4B00228C
:100A6C00DA600B4B00221A61094B0C225A61084BBD
:100A7C0000229A61064B0022DA61054801F012FA55
:100A8C000346002B01D0FFF733FF00BF80BD00BF32
:100A9C008C0100200048004080B58CB000AF78601D
:100AAC0007F1200300221A605A609A60DA607B68B2
:100ABC001B68534A934232D1524B9B69514A43F4BF
:100ACC00804393614F4B9B6903F48043FB61FB694B
:100ADC004C4B9B694B4A43F004039361494B9B6914
:100AEC0003F00403BB61BB694FF400733B62022348
:100AFC007B620323FB6207F120031946424800F096
:100B0C003DFC4FF480633B6200237B620023BB629D
:100B1C0007F1200319463C4800F030FC6CE07B6880
:100B2C001B683A4A934230D1364BDB69354A43F461
:100B3C000033D361334BDB6903F400337B617B6996
:100B4C00304B9B692F4A43F0040393612D4B9B69F7
:100B5C0003F004033B613B6904233B6202237B6289
:100B6C000323FB6207F120031946274800F006FC1B
:100B7C0008233B6200237B620023BB6207F1200346
:100B8C001946214800F0FAFB36E07B681B68204AC6
:100B9C00934231D11B4BDB691A4A43F48023D36156
:100BAC00184BDB6903F48023FB60FB68154B9B69D6
:100BBC00144A43F008039361124B9B6903F008033A
:100BCC00BB60BB684FF480633B6202237B620323F0
:100BDC00FB6207F1200319460E4800F0CFFB4FF4DF
:100BEC0000633B6200237B620023BB6207F120039E
:100BFC001946084800F0C2FB00BF3037BD4680BD27
:100C0C000038014000100240000801400044004040
:100C1C0000480040000C0140FFF7B9FE0B480C499E
:100C2C000C4A002302E0D458C4500433C4188C423C
:100C3C00F9D3094A094C002301E013600432A242A3
:100C4C00FBD301F099FBFFF705FE70470000002075
:100C5C000C0000202024000810000020F8010020C7
:100C6C00FEE7000080B500AF084B1B68074A43F055
:100C7C0010031360032000F007F90F2000F008F8B0
:100C8C00FFF73CFE0023184680BD00BF0020024049
:100C9C0080B582B000AF7860124B1A68124B1B788B
:100CAC0019464FF47A73B3FBF1F3B2FBF3F3184626
:100CBC0000F011F90346002B01D001230EE07B68F4
:100CCC000F2B0AD8002279684FF0FF3000F0E7F8BC
:100CDC00064A7B681360002300E00123184608379E
:100CEC00BD4680BD0000002008000020040000204C
:100CFC0080B400AF054B1B781A46054B1B68134498
:100D0C00034A136000BFBD4680BC7047080000203A
:100D1C00D401002080B400AF024B1B681846BD46BE
:100D2C0080BC7047D401002080B485B000AF7860DF
:100D3C007B6803F00703FB600C4BDB68BB60BA6895
:100D4C004FF6FF031340BB60FB681A02BB681343EA
:100D5C0043F0BF6343F40033BB60044ABB68D36009
:100D6C0000BF1437BD4680BC704700BF00ED00E0EB
:100D7C0080B400AF044BDB681B0A03F00703184672
:100D8C00BD4680BC704700BF00ED00E080B483B06E
:100D9C0000AF03463960FB7197F90730002B0ADB73
:100DAC003B68DAB20C4997F907301201D2B20B4406
:100DBC0083F800230AE03B68DAB20849FB7903F0B8
:100DCC000F03043B1201D2B20B441A7600BF0C374E
:100DDC00BD4680BC704700BF00E100E000ED00E0C4
:100DEC0080B489B000AFF860B9607A60FB6803F03A
:100DFC000703FB61FB69C3F10703042B28BF042322
:100E0C00BB61FB690433062B02D9FB69033B00E091
:100E1C0000237B614FF0FF32BB6902FA03F3DA4324
:100E2C00BB681A407B699A404FF0FF317B6901FA2D
:100E3C0003F3D9437B680B40134318462437BD4654
:100E4C0080BC704780B582B000AF78607B68013B96
:100E5C00B3F1807F01D301230FE00A4A7B68013B89
:100E6C0053600F214FF0FF30FFF790FF054B00222E
:100E7C009A60044B07221A60002318460837BD46B7
:100E8C0080BD00BF10E000E080B582B000AF78609C
:100E9C007868FFF749FF00BF0837BD4680BD80B5B5
:100EAC0086B000AF0346B9607A60FB7300237B61A8
:100EBC00FFF75EFF78617A68B9687869FFF790FF91
:100ECC00024697F90F3011461846FFF75FFF00BF37
:100EDC001837BD4680BD80B582B000AF78607868A9
:100EEC00FFF7B0FF034618460837BD4680BD80B5F6
:100EFC0082B000AF78607B68002B01D101230EE03B
:100F0C007B685B79DBB2002B05D17B6800221A7100
:100F1C007868FFF753FC7B6801225A71002318464E
:100F2C000837BD4680BD80B487B000AFF860B960AB
:100F3C007A6000233B61FB6802225A7100237B61BB
:100F4C000AE07B699B00BA681A44FB681B6812684C
:100F5C001A607B6901337B617A697B689A42F0D3B2
:100F6C00FB681B681B683B61FB6801225A713B697B
:100F7C0018461C37BD4680BC70470000F0B587B0E2
:100F8C0000AFF860B960C7E900230123FB750023AB
:100F9C00BB7500237B752F4B1B7E012B01D10223CC
:100FAC0054E02C4B01221A764CF2503000F0A8F889
:100FBC000346FB75FB7D002B44D1FB68012B02D152
:100FCC0001237B7507E0FB68022B02D102237B75A2
:100FDC0001E004237B750023BB752DE0BB7D5A001B
:100FEC00BB6802EB030CBB7D1901D7E90023C1F1EF
:100FFC002006A1F1200022FA01F403FA06F634438C
:10100C0023FA00F0044323FA01F5A3B21946604613
:10101C0000F05AF84CF2503000F072F80346FB75B1
:10102C000D4B1B690C4A23F001031361FB7D002B54
:10103C0007D1BB7D0133BB75BA7D7B7D9A42CDD385
:10104C0000E000BF034B00221A76FB7D18461C37CC
:10105C00BD46F0BDD80100200020024080B483B012
:10106C0000AF0023FB710D4B1B6903F08003002BB9
:10107C000DD00A4B0A4A5A60084B0A4A5A60074B71
:10108C001B6903F08003002B01D00123FB71FB795A
:10109C0018460C37BD4680BC704700BF002002408C
:1010AC0023016745AB89EFCD80B400AF054B1B69BD
:1010BC00044A43F08003136100231846BD4680BCEC
:1010CC00704700BF0020024080B483B000AF78604E
:1010DC000B467B80084B0022DA61084B1B69074AE0
:1010EC0043F0010313617B687A881A8000BF0C37C8
:1010FC00BD4680BC704700BFD801002000200240D4
:10110C0080B584B000AF7860FFF704FEF86010E0A3
:10111C007B68B3F1FF3F0CD07B68002B07D0FFF747
:10112C00F9FD0246FB68D31A7A689A4201D203236E
:10113C0025E0154BDB6803F00103002BE8D1124BC3
:10114C00DB6803F02003002B02D00F4B2022DA6067
:10115C000D4BDB6803F01003002B0BD10A4BDB6942
:10116C0003F00103002B05D1074BDB6803F00403EC
:10117C00002B03D000F00AF8012300E000231846EE
:10118C001037BD4680BD00BF0020024080B483B044
:10119C0000AF00237B60234BDB6803F01003002BB4
:1011AC0009D0214BDB6943F002031F4AD3617B68F2
:1011BC0043F010037B601B4BDB6803F00403002B34
:1011CC0009D0194BDB6943F00103174AD3617B68E3
:1011DC0043F004037B60134BDB6903F00103002B2A
:1011EC000BD0114BDB6943F004030F4AD3610D4B59
:1011FC00DB690C4A23F00103D3617B6840F20112D6
:10120C00934206D1074BDB69064A23F00103D361F5
:10121C0002E0044A7B68D36000BF0C37BD4680BC3B
:10122C00704700BF00200240D801002080B584B078
:10123C0000AF786039600123FB730023BB602F4B38
:10124C001B7E012B01D1022353E02C4B01221A7679
:10125C007B681B68022B16D14CF25030FFF750FF05
:10126C000346002B41D1012000F04CF84CF25030D9
:10127C00FFF746FF0346FB73214B1B69204A23F003
:10128C000403136131E04CF25030FFF739FF034691
:10129C00002B2AD13B684FF0FF321A607B689B68A9
:1012AC00BB6019E0B86800F049F84CF25030FFF719
:1012BC0027FF0346FB73124B1B69114A23F00203F1
:1012CC001361FB7B002B03D03B68BA681A600CE0FF
:1012DC00BB6803F58063BB607B68DB689A027B6844
:1012EC009B681344BA689A42DCD3044B00221A76EA
:1012FC00FB7B18461037BD4680BD00BFD8010020CF
:10130C000020024080B483B000AF7860094B00220B
:10131C00DA61094B1B69084A43F004031361064B5D
:10132C001B69054A43F04003136100BF0C37BD46EF
:10133C0080BC7047D80100200020024080B483B0EC
:10134C0000AF78600B4B0022DA610B4B1B690A4A29
:10135C0043F002031361084A7B685361064B1B6917
:10136C00054A43F04003136100BF0C37BD4680BCF7
:10137C00704700BFD80100200020024080B48BB021
:10138C0000AF7860396000237B6200233B6269E127
:10139C0001227B6A02FA03F3FB613B681B68FA6962
:1013AC001340BB61BA69FB699A4240F058813B68B3
:1013BC005B689A4A93425ED0984A934275D8984A91
:1013CC00934258D0964A93426FD8964A934252D041
:1013DC00944A934269D8944A93424CD0924A93428D
:1013EC0063D8924A934246D0904A93425DD8122BCE
:1013FC002AD8122B59D801A252F823F083140008D2
:10140C005D1400086F140008B1140008B71400082C
:10141C00B7140008B7140008B7140008B714000874
:10142C00B7140008B7140008B7140008B714000864
:10143C00B7140008B7140008B7140008B714000854
:10144C006514000879140008794A934213D02CE0F3
:10145C003B68DB683B6229E03B68DB6804333B623A
:10146C0024E03B68DB6808333B621FE03B68DB68C9
:10147C000C333B621AE03B689B68002B02D10423BF
:10148C003B6213E03B689B68012B05D108233B6250
:10149C007B68FA691A6109E008233B627B68FA6988
:1014AC005A6103E000233B6200E000BFBB69FF2BE5
:1014BC0001D87B6801E07B6804337B61BB69FF2B3F
:1014CC0002D87B6A9B0002E07B6A083B9B003B6175
:1014DC007B691A680F213B6901FA03F3DB431A405D
:1014EC00396A3B6901FA03F31A437B691A603B685A
:1014FC005B6803F08053002B00F0B1804D4B9B696F
:10150C004C4A43F0010393614A4B9B6903F001037E
:10151C00BB60BB68484A7B6A9B08023352F8233095
:10152C00FB607B6A03F003039B000F2202FA03F3B8
:10153C00DB43FA681340FB607B68404A934213D04C
:10154C007B683F4A93420DD07B683E4A934207D05A
:10155C007B683D4A934201D1032306E0042304E057
:10156C00022302E0012300E000237A6A02F0030266
:10157C0092009340FA681343FB602F497B6A9B08E7
:10158C000233FA6841F823203B685B6803F480134C
:10159C00002B06D02D4B9A682C49BB6913438B60EA
:1015AC0006E02A4B9A68BB69DB43284913408B60E1
:1015BC003B685B6803F40013002B06D0234BDA68FE
:1015CC002249BB691343CB6006E0204BDA68BB6948
:1015DC00DB431E491340CB603B685B6803F400336C
:1015EC00002B06D0194B5A681849BB6913434B6042
:1015FC0006E0164B5A68BB69DB43144913404B6039
:10160C003B685B6803F48033002B21D00F4B1A68C6
:10161C000E49BB6913430B6021E000BF0000321080
:10162C0000003110000022100000211000001210E8
:10163C0000001110001002400000014000080140A1
:10164C00000C014000100140001401400004014056
:10165C000B4B1A68BB69DB43094913400B607B6A6F
:10166C0001337B623B681A687B6A22FA03F3002B16
:10167C007FF48EAE00BF00BF2C37BD4680BC7047D8
:10168C000004014080B586B000AF78607B68002B09
:10169C0001D1012372E27B681B6803F00103002B6C
:1016AC0000F08780924B5B6803F00C03042B0CD08A
:1016BC008F4B5B6803F00C03082B12D18C4B5B68CF
:1016CC0003F48033B3F5803F0BD1894B1B6803F4D3
:1016DC000033002B6CD07B685B68002B68D1012336
:1016EC004CE27B685B68B3F5803F06D1804B1B688E
:1016FC007F4A43F4803313602EE07B685B68002BD9
:10170C000CD17B4B1B687A4A23F480331360784BE3
:10171C001B68774A23F4802313601DE07B685B68A9
:10172C00B3F5A02F0CD1724B1B68714A43F4802384
:10173C0013606F4B1B686E4A43F4803313600BE0ED
:10174C006B4B1B686A4A23F480331360684B1B682D
:10175C00674A23F4802313607B685B68002B13D0EB
:10176C00FFF7D8FA386108E0FFF7D4FA02463B6974
:10177C00D31A642B01D9032300E25D4B1B6803F4DD
:10178C000033002BF0D014E0FFF7C4FA386108E006
:10179C00FFF7C0FA02463B69D31A642B01D9032325
:1017AC00ECE1534B1B6803F40033002BF0D100E049
:1017BC0000BF7B681B6803F00203002B63D04C4B0B
:1017CC005B6803F00C03002B0BD0494B5B6803F0F8
:1017DC000C03082B1CD1464B5B6803F48033002BA5
:1017EC0016D1434B1B6803F00203002B05D07B681A
:1017FC001B69012B01D00123C0E13D4B1B6823F079
:10180C00F8027B685B69DB00394913430B603AE0F3
:10181C007B681B69002B20D0364B01221A60FFF726
:10182C0079FA386108E0FFF775FA02463B69D31A7A
:10183C00022B01D90323A1E12D4B1B6803F00203FA
:10184C00002BF0D02A4B1B6823F0F8027B685B69F5
:10185C00DB00274913430B6015E0264B00221A606E
:10186C00FFF758FA386108E0FFF754FA02463B6973
:10187C00D31A022B01D9032380E11D4B1B6803F003
:10188C000203002BF0D17B681B6803F00803002BCC
:10189C003AD07B689B69002B19D0174B01221A6038
:1018AC00FFF738FA386108E0FFF734FA02463B6973
:1018BC00D31A022B01D9032360E10D4B5B6A03F0B1
:1018CC000203002BF0D0012000F0CEFA1CE00A4BF2
:1018DC0000221A60FFF71EFA38610FE0FFF71AFAC0
:1018EC0002463B69D31A022B08D9032346E100BFF9
:1018FC00001002400000424280044242924B5B6A5C
:10190C0003F00203002BE9D17B681B6803F004038E
:10191C00002B00F0A6800023FB758B4BDB6903F0DA
:10192C008053002B0DD1884BDB69874A43F08053E1
:10193C00D361854BDB6903F08053BB60BB6801232B
:10194C00FB75824B1B6803F48073002B18D17F4B03
:10195C001B687E4A43F480731360FFF7DBF9386130
:10196C0008E0FFF7D7F902463B69D31A642B01D97B
:10197C00032303E1754B1B6803F48073002BF0D039
:10198C007B68DB68012B06D16F4B1B6A6E4A43F0F8
:10199C00010313622DE07B68DB68002B0CD16A4BD2
:1019AC001B6A694A23F001031362674B1B6A664A80
:1019BC0023F0040313621CE07B68DB68052B0CD15D
:1019CC00614B1B6A604A43F0040313625E4B1B6A53
:1019DC005D4A43F0010313620BE05B4B1B6A5A4AEE
:1019EC0023F001031362584B1B6A574A23F004037C
:1019FC0013627B68DB68002B15D0FFF78BF938611D
:101A0C000AE0FFF787F902463B69D31A41F28832A4
:101A1C00934201D90323B1E04B4B1B6A03F0020341
:101A2C00002BEED014E0FFF775F938610AE0FFF7F0
:101A3C0071F902463B69D31A41F28832934201D9BB
:101A4C0003239BE0404B1B6A03F00203002BEED1F7
:101A5C00FB7D012B05D13C4BDB693B4A23F08053CA
:101A6C00D3617B68DB69002B00F08780364B5B68A9
:101A7C0003F00C03082B61D07B68DB69022B46D189
:101A8C00334B00221A60FFF745F9386108E0FFF785
:101A9C0041F902463B69D31A022B01D903236DE0AD
:101AAC00294B1B6803F00073002BF0D17B681B6A79
:101ABC00B3F5803F08D1244B5B6823F400327B687C
:101ACC009B68214913434B601F4B5B6823F47412D2
:101ADC007B68196A7B685B6A0B431B4913434B6039
:101AEC001B4B01221A60FFF715F9386108E0FFF76C
:101AFC0011F902463B69D31A022B01D903233DE0AD
:101B0C00114B1B6803F00073002BF0D035E0104B29
:101B1C0000221A60FFF7FEF8386108E0FFF7FAF8C8
:101B2C0002463B69D31A022B01D9032326E0064B4C
:101B3C001B6803F00073002BF0D11EE07B68DB699F
:101B4C00012B07D1012319E0001002400070004066
:101B5C00600042420B4B5B68FB60FB6803F4803215
:101B6C007B681B6A9A4206D1FB6803F470127B688F
:101B7C005B6A9A4201D0012300E000231846183713
:101B8C00BD4680BD0010024080B584B000AF7860C7
:101B9C0039607B68002B01D10123D0E06A4B1B68B4
:101BAC0003F007033A689A4210D9674B1B6823F07D
:101BBC00070265493B6813430B60634B1B6803F0DA
:101BCC0007033A689A4201D00123B8E07B681B688E
:101BDC0003F00203002B20D07B681B6803F0040386
:101BEC00002B05D0594B5B68584A43F4E0635360B3
:101BFC007B681B6803F00803002B05D0534B5B6814
:101C0C00524A43F460535360504B5B6823F0F0022C
:101C1C007B689B684D4913434B607B681B6803F0E2
:101C2C000103002B40D07B685B68012B07D1474B2D
:101C3C001B6803F40033002B15D101237FE07B6874
:101C4C005B68022B07D1414B1B6803F00073002B20
:101C5C0009D1012373E03D4B1B6803F00203002BF9
:101C6C0001D101236BE0394B5B6823F003027B68E5
:101C7C005B68364913434B60FFF74CF8F8600AE099
:101C8C00FFF748F80246FB68D31A41F288329342B8
:101C9C0001D9032353E02D4B5B6803F00C027B68E6
:101CAC005B689B009A42EBD1274B1B6803F0070340
:101CBC003A689A4210D2244B1B6823F0070222493F
:101CCC003B6813430B60204B1B6803F007033A6817
:101CDC009A4201D0012332E07B681B6803F00403B5
:101CEC00002B08D0194B5B6823F4E0627B68DB683F
:101CFC00164913434B607B681B6803F00803002BE9
:101D0C0009D0124B5B6823F460527B681B69DB00C3
:101D1C000E4913434B6000F021F802460B4B5B68F5
:101D2C001B0903F00F030A49CB5C22FA03F3094A9F
:101D3C001360094B1B681846FEF7AAFF00231846D0
:101D4C001037BD4680BD00BF00200240001002408D
:101D5C00EC230008000000200400002080B487B0B1
:101D6C0000AF0023FB600023BB6000237B610023DA
:101D7C007B6000233B611E4B5B68FB60FB6803F0E0
:101D8C000C03042B02D0082B03D027E0194B3B612A
:101D9C0027E0FB689B0C03F00F03174AD35C7B60B6
:101DAC00FB6803F48033002B10D0114B5B685B0C89
:101DBC0003F00103114AD35CBB607B680D4A03FB43
:101DCC0002F2BB68B2FBF3F37B6104E07B680C4A64
:101DDC0002FB03F37B617B693B6102E0054B3B61DA
:101DEC0000BF3B6918461C37BD4680BC704700BF1E
:101DFC000010024000127A00042400081424000889
:101E0C0000093D0080B400AF024B1B681846BD466C
:101E1C0080BC70470000002080B500AFFFF7F2FFD8
:101E2C000246054B5B681B0A03F007030349CB5CB6
:101E3C0022FA03F3184680BD00100240FC23000870
:101E4C0080B500AFFFF7DEFF0246054B5B68DB0A8F
:101E5C0003F007030349CB5C22FA03F3184680BD59
:101E6C0000100240FC23000880B485B000AF7860FD
:101E7C000A4B1B680A4AA2FB03235B0A7A6802FB23
:101E8C0003F3FB6000BFFB685A1EFA60002BF9D10C
:101E9C0000BF00BF1437BD4680BC70470000002057
:101EAC00D34D621080B582B000AF78607B68002B98
:101EBC0001D1012342E07B6893F84130DBB2002B67
:101ECC0006D17B68002283F840207868FEF7E4FD99
:101EDC007B68242283F841207B681B68DA687B6866
:101EEC001B6822F40052DA60786800F0AFF97B6866
:101EFC001B681A697B681B6822F490421A617B6824
:101F0C001B685A697B681B6822F02A025A617B683D
:101F1C001B68DA687B681B6842F40052DA607B68E5
:101F2C0000225A647B68202283F841207B6820229F
:101F3C0083F842207B6800225A6300231846083736
:101F4C00BD4680BD80B58AB002AFF860B9603B6019
:101F5C001346FB8000237B61FB6893F84130DBB2B6
:101F6C00202B6DD1BB68002B02D0FB88002B01D13C
:101F7C00012366E0FB6800225A64FB68212283F887
:101F8C004120FEF7C7FE7861FB68FA889A84FB68EB
:101F9C00FA88DA84FB689B68B3F5805F08D1FB682C
:101FAC001B69002B04D10023FB61BB68BB6103E000
:101FBC00BB68FB610023BB612AE03B6800937B6933
:101FCC0000228021F86800F0D2F80346002B01D0E3
:101FDC00032336E0FB69002B0BD1BB691B881A4627
:101FEC00FB681B68C2F308025A60BB690233BB6111
:101FFC0007E0FB691A78FB681B685A60FB690133C0
:10200C00FB61FB68DB8C9BB2013B9AB2FB68DA8408
:10201C00FB68DB8C9BB2002BCFD13B6800937B69B8
:10202C0000224021F86800F0A2F80346002B01D0F2
:10203C00032306E0FB68202283F84120002300E004
:10204C00022318462037BD4680BD80B58AB002AF4A
:10205C00F860B9603B601346FB8000237B61FB6832
:10206C0093F84230DBB2202B7CD1BB68002B02D022
:10207C00FB88002B01D1012375E0FB6800225A6418
:10208C00FB68222283F84220FB6800221A63FEF7C9
:10209C0041FE7861FB68FA889A85FB68FA88DA85D4
:1020AC00FB689B68B3F5805F08D1FB681B69002B4C
:1020BC0004D10023FB61BB68BB6103E0BB68FB611F
:1020CC000023BB6143E03B6800937B690022202125
:1020DC00F86800F04CF80346002B01D0032342E0D3
:1020EC00FB69002B0CD1FB681B685B689BB2C3F3CC
:1020FC0008039AB2BB691A80BB690233BB611FE04B
:10210C00FB689B68B3F5805F07D0FB689B68002B6E
:10211C000AD1FB681B69002B06D1FB681B685B6846
:10212C00DAB2FB691A7008E0FB681B685B68DBB20B
:10213C0003F07F03DAB2FB691A70FB690133FB61B0
:10214C00FB68DB8D9BB2013B9AB2FB68DA85FB68BE
:10215C00DB8D9BB2002BB6D1FB68202283F842208A
:10216C00002300E0022318462037BD4680BD80B511
:10217C0090B000AFF860B9603B601346FB7150E063
:10218C00BB6CB3F1FF3F4CD0BB6C002B07D0FEF700
:10219C00C1FD02463B68D31ABA6C9A4241D2FB6825
:1021AC001B680C33BB62BB6A53E8003F7B627B6AE3
:1021BC0023F4D073FB63FB681B680C33FA6B7A63F4
:1021CC003B63396B7A6B41E80023FB62FB6A002BA3
:1021DC00E5D1FB681B6814337B617B6953E8003FD6
:1021EC003B613B6923F00103BB63FB681B68143341
:1021FC00BA6B3A62FB61F9693A6A41E80023BB6148
:10220C00BB69002BE5D1FB68202283F84120FB68D9
:10221C00202283F84220FB68002283F8402003230D
:10222C000FE0FB681B681A68BB681340BA689A42D7
:10223C000CBF01230023DBB21A46FB799A429FD0D4
:10224C00002318464037BD4680BD000080B584B0E1
:10225C0000AF78607B681B681B6923F440517B6876
:10226C00DA687B681B680A431A617B689A687B682A
:10227C001B691A437B685B691343BB607B681B68F3
:10228C00DB6823F4B05323F00C037A681268B96846
:10229C000B43D3607B681B685B6923F440717B68DC
:1022AC009A697B681B680A435A617B681B682C4AD5
:1022BC00934203D1FFF7C4FDF86002E0FFF7ACFDD9
:1022CC00F860FA6813469B0013449A001A447B6822
:1022DC005B689B00B2FBF3F3224AA2FB03235B096E
:1022EC001901FA6813469B0013449A001A447B6840
:1022FC005B689B00B2FBF3F21A4BA3FB02035B0976
:10230C00642000FB03F3D31A1B013233154AA2FBE2
:10231C0003235B0903F0F0031944FA6813469B008E
:10232C0013449A001A447B685B689B00B2FBF3F27F
:10233C000C4BA3FB02035B09642000FB03F3D31AD1
:10234C001B013233074AA2FB03235B0903F00F0284
:10235C007B681B680A449A6000BF1037BD4680BD7D
:10236C00003801401F85EB5103460244934200D1D3
:10237C00704703F8011BF9E770B500260C4D0D4CA6
:10238C00641BA410A64209D100F01AF800260A4DCD
:10239C000A4C641BA410A64205D170BD55F8043B31
:1023AC0098470136EEE755F8043B98470136F2E7BB
:1023BC001824000818240008182400081C240008FD
:1023CC00F8B500BFF8BC08BC9E467047F8B500BF16
:0823DC00F8BC08BC9E467047E6
:1023E4001011121415160000000000000000000077
:1023F40001020304060708090000000001020304A7
:1024040002030405060708090A0B0C0D0E0F101031
:0424140001020000C1
:042418003101000886
:04241C000D010008A6
:0C2420000024F400100000000100000087
:0400000508000C25BE
:00000001FF
